:020000040800F2
:20000000580900200D02000883180008B117000881180008790B0008D93F00080000000088
:20002000000000000000000000000000CD240008870F00080000000025190008512C00085E
:20004000270200082702000827020008270200082702000827020008270200082702000818
:200060002702000827020008270200082702000827020008270200082702000827020008F8
:200080002702000827020008270200082702000827020008270200082702000827020008D8
:2000A000270200089D2C000827020008270200082702000827020008270200082702000818
:2000C000270200082702000827020008270200082702000827020008270200082702000898
:2000E000270200082702000827020008270200082702000827020008270200082702000878
:20010000270200082702000827020008270200082702000827020008270200082702000857
:200120002702000827020008270200082702000800F002F800F05AF80AA090E8000C8244DB
:200140008344AAF10107DA4501D100F04FF8AFF2090EBAE80F0013F0010F18BFFB1A43F072
:2001600001031847B05D0000D05D00000A444FF0000C10F8013B13F0070408BF10F8014BDC
:200180001D1108BF10F8015B641E05D010F8016B641E01F8016BF9D113F0080F1EBF10F88B
:2001A000014BAD1C0C1B09D16D1E58BF01F801CBFAD505E014F8016B01F8016B6D1EF9D5D8
:2001C0009142D6D3704700000023002400250026103A28BF78C1FBD8520728BF30C148BFE5
:2001E0000B6070471FB51FBD10B510BD00F031F81146FFF7F7FF03F0F5FE00F04FF803B46B
:20020000FFF7F2FF03BC00F053F800000948804709480047FEE7FEE7FEE7FEE7FEE7FEE7EF
:20022000FEE7FEE7FEE7FEE704480549054A064B70470000552C00083101000858030020FB
:20024000580900205805002058050020704770477047754600F028F8AE46050069465346F2
:2002600020F00700854618B020B5FFF7DDFFBDE820404FF000064FF000074FF000084FF017
:20028000000B21F00701AC46ACE8C009ACE8C009ACE8C009ACE8C0098D4670470446AFF35E
:2002A00000802046FFF7ABFF00487047F402002001491820ABBEFEE72600020070470029CB
:2002C000816802D041F0010101E021F00101816070470029816802D041F4807101E021F4A4
:2002E00080718160704700000D4910B5884202D1012144150AE00B49884202D1012104152C
:2003000004E0094988420AD10121CC03204601F0E1FE2046BDE81040002101F0DBBE10BD08
:200320000024014000280140003C01400029816802D041F4801101E021F4801181607047A9
:200340000029816802D041F4004101E021F4004181607047826822F4E0420A43826070476C
:20036000014600208968490700D501207047014600208968090700D50120704710B54268A4
:200380000E4B0C791A400B6842EA04221343436082680B4B1A40D1E9024323434C7942EA77
:2003A000440213438360C26A097C22F47002491EC9B242EA0151C16210BD0000FFFEF0FF49
:2003C000FDF7F1FF70B5072609290AD9C568A1F10A0404EB4404A640B543A3401D43C56088
:2003E00007E0056901EB4104A640B543A3401D430561836BC3F30154121B921C02EB8202AB
:200400001F249440A34391400B43836370BD826B491E22F4401242EA01518163704770B5B3
:20042000072609290AD9C568A1F10A0404EB4404A640B543A3401D43C56007E0056901EBEF
:200440004104A640B543A3401D4305611F23072A09D2446B521E02EB820293409C4391406F
:200460000C43446370BD0D2A09D2046BD21F02EB820293409C4391400C43046370BDC46AE2
:200480000D3A02EB820293409C4391400C43C46270BD816841F008018160704710B50446B5
:2004A000022000F043FD0028FAD008480168A1800168090C6180416821804068000CE08061
:2004C000BDE810400021024800F004B8BC010020002401400029816802D041F4A00101E033
:2004E00021F4A00181607047816841F004018160704700210160017141718160C16001212D
:20050000017470472DE9F84F7648784D002601787548774C774F002978D0DFF8DCB182464D
:200520000168DBF80000804605F0C0FA734905F0BFF929460860404604F0DCFF4FF03332D1
:200540006F4B04F0EFFD6F4D80468946286804F0D1FF42464B4604F0CDFB04F099FB6C494A
:20056000694A2860DFF8A4C109684FF40003904201DD2A6006E0674A904201D92A6012E054
:2005800098420DDB624899420ADB8046286805F05BFA02D2D8F8000000E0286820600FE00C
:2005A0002868604508D35A48614505D38046286805F04AFAF1D3EDE7554826602E600660CD
:2005C000DBF800005449054605F072F9216804F0BDFF4649096804F0B9FF05F0EDF84F49A9
:2005E0000988084400B23880B0F5806F02DB40F2FF303880B7F9000010F5806F02DC4FF663
:2006000001403880CAF8005006E0FFE706603D4806602E6026603E804148DFF80C81434D63
:2006200001784048F1B3824601684148006883465E4605F03BFA314905F03AF9C8F80000FA
:200640000090304604F056FF4FF033322C4B04F069FD2F4E80468946306804F04BFF424666
:200660004B4604F047FB04F013FB27493060884202DC2849884200D931602749584605F061
:2006800017F9216804F062FF009904F05FFF05F093F822490988401A00B22880B0F5806FBD
:2006A00004DB00E00DE040F2FF302880B5F9000010F5806F02DC4FF601402880CAF800B065
:2006C00006E0066012480660C8F8006026602E801849388808802888174940420880BDE852
:2006E000F88F0000CE0000201C010020280100203801002024010020140100200000F041FB
:200700003333D33F3001002000C07F44000080803401002000C07FC40000B442F40000202B
:20072000CF000020200100202C010020260100201801002054000020520000202DE9F84F79
:200740009648DFF854C2964F04789CF8003000209449DFF854A2012223B17CB938708AF889
:2007600000000BE054B1914E0A70C823357815B15B1E3070DBB2002BF8D108708C4E8CF862
:20078000004097F8008033784FF002095D1CEDB24FF0030CB8F1000F70D014B10870BDE8D5
:2007A000F88F844C247814B181F800C0F7E7824C247864B1814C2778002FF0D181F800C056
:2007C000502B02D330702270E8E73570E7E77C4C27787C4C0097247817B124B97A4C01E0A7
:2007E0000CB17A4C22707A4CDFF8F4E12778794C94F800C0784C94F800B0784C24781FB192
:20080000BCF1000F00D11CB157EA0B0805D009E0DFF8D08188F800200CE01CB1DFF8C481CF
:2008200088F8002037B9BCF1000F03D014B9BBF1000F07D047EA0C0C5CEA040C04D1BBF11A
:20084000000F01D08EF80020DFF87881DDF800C088F800C0DFF87CC18CF800705E4F3C700C
:20086000614F3C7894B19AF800C0BCF1000F06D0087030708AF80000387090E772E00A7066
:20088000782BA2D330708AF8002088E7DFF838C19CF8004024BB0AE0012C72D0087030709B
:2008A0008AF800008CF8000079E70A7010E0DFF81CC19CF8004074B19AF8004034B1012CD7
:2008C00023D0EBE730708AF8009068E781F80090502BD7D279E7DFF80CC19CF8004024B178
:2008E0009AF80040002CE0D0D6E79EF8004084B19AF80040002CE9D0012C06D008703070B0
:200900008AF800008EF8000049E70A70502BD9D25BE7364C2478F4B901E00A703FE7344CF1
:20092000247844B1C82BD5D330700A78002A7FF44BAF042032E72F4C247844B1642BC9D35E
:2009400030700A78002AF5D181F8009027E72A4C2478002CEED0642BBCD330700B78002B06
:20096000DBD01BE79AF80040002C9ED0012C08D0022C08D0087030708AF800003A700EE71A
:20098000FFE74A4691E781F800C0502BA2D330708AF800C003E70000C9000020C3000020A8
:2009A000D3000020AA000020D400002075000020C5000020C400002073000020C2000020B3
:2009C00078000020C6000020E0000020E1000020D7000020C7000020C8000020D8000020DA
:2009E000E3000020E2000020CD000020D000002070000020D1000020D2000020174B40B34D
:200A0000174A0128117806D0022807D0032809D004280AD00AE049B9062001E031B90520E0
:200A2000507006E011B90420FAE729B15078814204D2491C117070470F20F1E700201070C2
:200A4000917821B190701021184600F046BD012090701021184600F03EBD00000008014055
:200A6000300000202DE9F04F3848394FDFF8E8C0B0F90010B0F902207E891144B0F904209D
:200A8000B0F906001144084432498310981B0880BCF9020006F52A76411E0AB2411C0CB235
:200AA0002E490125DFF8B880B1F90010DFF8B4E040F247494FF0000A4FF0020B9E4201DB52
:200AC000494509DA88F80050002802DBACF8022009E0ACF8024006E098F8000018B188F87C
:200AE00000A08EF800B020483E89214FB0F90020B0F90230DFF87CC01A44B0F90430B0F9E6
:200B000006001A441044194A8310981B1080B7F9020006F52A76421E14B2421C12B29E426F
:200B200001DB494508DA8CF80050002802DB7C80BDE8F08F7A80FBE79CF800000028F7D011
:200B40008CF800A08EF800B0F2E700009E000020E0020020640000209801002066000020DF
:200B6000B80000207F000020960000206200002094010020B7000020FEE7000070B54A489E
:200B8000B0F90010B0F902201144B0F90420B0F906001144084440F38F044448444A0480FB
:200BA000B2F9000000EB4001C1EBC010C31700EB536004EB4401CB17C01101EB536100EBF8
:200BC000E11000B23B49108091FBF0F004F010FE39493A4A0860904202DA394A904200DCA3
:200BE0000A603949374BB1F900203849B3F90000C0EB0010B1F90010C0000A44C517D10060
:200C000000EB5560CD17C01101EB556100EBE1101880521E2E4B0020682A20D2B3F9001020
:200C20002C4A8C4208DA518A4D1C5582B1F5167F03D950821C8000E05082274D6422B5F994
:200C400000105143C4EBC402CC1701EB54619200C911D41702EB546201EBE2112980B3F9C9
:200C6000001040F263541D4A0123A14201DA137000E0107040F24354194AA14201DA1370E2
:200C800000E010701749184B8C6840F246518C4206D2164CA4688C4202D21178012901D03A
:200CA000187070BD197070BDBA000020660000206A000020B48B0100540100200000964252
:200CC00000008442DE000020640000206200002068000020300000206C0000206F00002057
:200CE0007000002034020020710000207402002010B54FF480510D4800F0E6FB0C4A0D493C
:200D0000002340B10B7148790A2801D3137010BD401C487110BD4B7108790A2802D30120E5
:200D2000107010BD401C087110BD00000008014078000020300000202DE9F04F304831494C
:200D40004FF0010A0278002042B12F4A2F4B12781B781A4302D081F800A000E008702C4997
:200D60002D4ADFF8BCB091F83B302A4991F83B402A49A34240D02B4B264E254F1D780B46A2
:200D800096F81490DB7B97F814C05B1CBF68B668DCB24FF0030EF319B5B140F28A25AB428E
:200DA0001BD24FF4A27516E0AF4216D8B9F1000F13D0BCF1000F10D0CC73032C0FD382F815
:200DC00000A081F80FE00AE0174D2D8805F10308B8EB530F01D9AE42E6D91070C873134A61
:200DE0005908B2FBF1F189B2ABF800100C2901D8ABF80000BDE8F08F1070C873F8E70000A6
:200E000078000020D0000020D7000020D80000207402002034020020D2000020300000202D
:200E2000DC0000207A0000206001002065F702000029016802D041F0010102E04FF6FE720F
:200E4000114001607047000001684FF6FE72114001600021016041608160C1603149314A3F
:200E60000839904203D1486840F00F0006E02D4A1432904204D1486840F0F0004860704723
:200E8000284A2832904203D1486840F47060F5E7244A3C32904203D1486840F47040EDE766
:200EA000204A5032904203D1486840F47020E5E71C4A6432904203D1486840F47000DDE7A6
:200EC000184A7832904203D1486840F07060D5E7154A111F904203D1086840F00F0006E02A
:200EE000114A1432904204D1086840F0F000086070470D4A2832904203D1086840F4706030
:200F0000F5E7094A3C32904203D1086840F47040EDE7054A50329042EAD1086840F47020D4
:200F2000E5E70000080002400804024002460020D10001D5034900E003490968114200D032
:200F400001207047000402400000024030B5026847F6F0739A430C6A8B682343D1E9044593
:200F60002C4323438C692343CC6923434C6A23438C6A234313430360CA6842600A6882604D
:200F80004968C16030BD704710B504466FF0040001F052FE0649E00800EB40020870C2EB9F
:200FA000C0104FF6FF7202EAC000488010BD0000000000200849498848434FF0E0214861B4
:200FC00000238B61012008610869C20701D0C003FAD50B618B617047000000200149012041
:200FE00008707047A8000020704700000149012008707047A7000020014901200870704748
:20100000A60000200149C860704700000020024070B505464FF43026304600F07DF804286F
:2010200011D1094C206940F0020020616561206940F040002061304600F06EF8216941F670
:20104000FD721140216170BD0020024008490420CA68D20701D001207047CA68520701D535
:2010600002207047C968C906FBD5032070470000002002400248016941F08001016170470C
:201080000020024004490A6822F010020A600A6802430A6070470000002002402DE9F84118
:2010A000064600204FF4005700900D46384600F033F8042816D10C4C206940F00100206108
:2010C0003580B846384600F027F8BF1E042806D1B61C280C00963080404600F01DF821698F
:2010E00039402161BDE8F88100200240034A116801F03801014311607047000000200240B7
:201100000348024941600349416070472301674500200240AB89EFCD00B50346FFF796FF49
:2011200002E0FFF793FF5B1E012803D0002B00D1052000BD002BF4D1FAE700002DE9F041DA
:201140000D4F0E4E1024C4F1100507EB450001F0BBF9641E26F8150014F0FF04F3D108482D
:20116000B189C181318A4182B18A0182318B8182718BC182BDE8F08100400308C002002076
:201180007200002070B5244D40F20110288041F2342068804FF0FF30A88041F28430E880E8
:2011A0006FF0010028814FF2380068811B48C189A981418A2982018AA982018B2983408BBE
:2011C0006883FFF79DFF164E3046FFF721FF04281ED11024C4F1100206EB420035F9121009
:2011E000FFF75CFF3420FFF70DFF641EE4B20120FFF7E0FE002CEDD110200021C0F110023D
:20120000401E25F8121010F0FF00F7D1FFF732FFBDE87040FFF72EBFC00200207200002097
:20122000004003082DE9F843DFF8E480404600F079F8384F384600F075F8374E304600F0A3
:2012400071F8364800F06EF80121354800F010F9E020ADF8000004258DF8035003248DF867
:2012600002406946384600F0B7F84FF4E050ADF800008DF803508DF802406946304600F094
:20128000ABF82020ADF8000010268DF803608DF802406946404600F09FF8ADF800608DF89B
:2012A00003608DF802406946404600F095F81021404600F010F9ADF800508DF803608DF840
:2012C00002406946384600F087F80421384600F002F9AE02ADF8006048208DF803008DF878
:2012E00002406946404600F077F8ADF800608DF803506946384600F06FF84020ADF80000B2
:201300008DF803506946404600F066F8BDE8F88300080140000C0140001001400014014016
:2013200000023000254910B5884206D10121042000F0D0FE002104203BE02149884206D138
:201340000121082000F0C6FE0021082031E01D49884206D10121102000F0BCFE00211020E1
:2013600027E01949884206D10121202000F0B2FE002120201DE01549884206D10121402082
:2013800000F0A8FE0021402013E01149884206D10121802000F09EFE0021802009E00D49FA
:2013A00088420AD184150121204600F093FE00212046BDE8104000F08DBE10BD0008014019
:2013C000000C0140001001400014014000180140001C014000200140F0B5CC78002204F004
:2013E0000F03E40601D58C7823430C784FF00F0C4FF0010EDCB105680E880EFA02F4264091
:20140000A64210D196000CFA06F725EA070703FA06F5CE783D43282E02D0482E02D002E03D
:20142000446100E00461521C082AE5D305600A88FF2A1CD94468002202F108060EFA06F583
:201440000E882E40AE420ED196000CFA06F7BC4303FA06F7CE783C43282E00D14561CE784F
:20146000482E00D10561521C082AE5D34460F0BDF0B5144C002801DAE36900E06368450DC5
:201480002E0185B2C0F30157B540C0F30342032F05D0C6020AD503269640B34307E023F051
:2014A0007062636823F07063636002E0AB4343F0706201B12A43002801DAE261F0BD62603D
:2014C000F0BD0000000001400246002092680A4200D0012070474161704701617047000056
:2014E000084A1268084B02821B68438283889A1A8A80C388408A181A4880104440420880CB
:20150000704700004024014040280140064A1268064B82811B68C38103889A1A0A8042884E
:20152000C089101A488070473C2401403C2801402DE9F84F98484FF6FF76984C8660403042
:201540004FF00008866084F8098084F80A8084F80B8084F80C8084F8068084F8028084F8C8
:20156000018084F807800F20142560733220E17819B1401E84F8038080B20028F7D18748E9
:201580001C300188428811448288C08811440844C0F38D00B0F59B6F03D920218048FFF79A
:2015A0009CFFFFF7CBFD06EA450000906420E17819B1401E84F8038080B20028F7D1DFF810
:2015C000E491B9F8001041F40041A9F80010764F388840F4004038804FF4BE70E17819B169
:2015E000401E84F8038080B20028F7D16B486A4B2430AC3301884288012511448288C088B1
:2016000011440844C0F38D0040F6BA01188140F24E6A884201D2504504D825713888C0F35E
:201620000E0038805D488E462C300288468832448688C08832441044C0F38D005881704553
:2016400001D2504506D86571B9F80010C1F30E01A9F800109B4610200021B3F90C30BBF96B
:201660000E600A4694F803C0BCF1000F05D0401E84F8038080B2194432440028F2D1C1F3CB
:201680000F10ABF80000C2F30F11ABF80210704505D2504503D9714501D2514504D8257170
:2016A0003888C0F30E00388010200021BBF91060BBF912300A4694F803C0BCF1000F05D056
:2016C000401E84F8038080B231441A440028F2D1C1F30F10ABF80400C2F30F11ABF80610B5
:2016E000704505D2504503D9714501D2514506D86571B9F80010C1F30E01A9F80010B9F834
:201700000010C1F30E01A9F800103888C0F30E003880264800F0D8FE1F4E8036308023489A
:20172000801C00F0D1FE70802048001D00F0CCFEB0801E48801D00F0C7FEF0801B4808302C
:2017400000F0C2FE308119480A3000F0BDFE70813078B188000200EB112041F21221084440
:201760002083B1793289090201EB122142F22112009811446183B4F9101000F5407081424A
:2017800005D1A4F81080FFF7FDFCFFF7D7FC257084F80880BDE8F88F3402002072000020E2
:2017A00000080140442C014044340140D0750008FEE70000274810B50178274809B1072146
:2017C00026E02649097809B1082121E02449097809B101211CE02349097809B1022117E0A8
:2017E0002149097809B1032112E02049097809B104210DE01E49097809B1052108E01D4962
:20180000097809B1062103E01B49097821B109211A4CE2792AB10CE0BDE810400421FFF70A
:201820005ABEA3795B1CDBB2A3718B4201D90023A371A3798B4204D21AB10421FFF74DFE8E
:2018400002E00421FFF747FEE07980F00100E07110BD00007D000020000C01407E000020D6
:201860007700002076000020AB000020CB000020CA0000206E000020790000203000002024
:20188000FEE7704708B54FF4A06000F041F819208DF8000001208DF8010002218DF8021064
:2018A0008DF80300684600F001F808BD70B50F23C278017801244FF0E025DAB1124A126870
:2018C00002F4E062C2F5E062120AC2F10406D3404278B24086781E400C4B16433201CA54E2
:2018E000007800F01F018C40400905EB8000C0F8004170BD01F01F008440480905EB800020
:20190000C0F8804170BD00000CED00E000E400E00249084302490860704700000000FA0585
:201920000CED00E0704700002DE9F84FFA4E4FF0000AFA48C6F800A0C6F804A0C6F808A0C1
:201940000178F748F74C0078014326D1F6486421007800EB80004000B0FBF1F03C3003F008
:201960005FFFF2494FF4A2720860F14801784FF4F360B0FBF1F0EF499042088000D90A8046
:20198000ED48007803F04CFFEC4903F053FE4FF07C512060884200DC2160DFF8A493DFF84B
:2019A000A4B3E94999F83B809BF83B50A84503D14FF6FF70088035E0DBF80820D9F808004E
:2019C0001044C0F34F00E24A0880E0491778E14A09783B4612780F431743A82802D30BB979
:2019E00001B91AB1DC48B0608FB915E0B0F5B87F0CD2C0F5B87003F0FBFE03F07BFDD74AE2
:201A0000D74B03F08FFB03F043F9B06027B1D648D4490160D54903E0D348D5490160D549BB
:201A2000D5480160B8F1010F04D11DB9B06880F00040B060D14801680091B06804F036F89F
:201A40008146CF480168CC48006803F031FF0746C5484946006803F02BFF009903F076FD33
:201A6000394603F073FDC54907460860C449C548C1F8009001683846009103F067FDDFF8B8
:201A8000089330603846D9F8001003F05FFDBF4B7060DFF8ACC2B3F90000411E0AB2411C2A
:201AA00009B2A84503D1002810DC12DB12E09CF8165015B99BF816501DB1002806DC08DB3B
:201AC00008E0B34DB5F90050A84201DD1A8001E000DA1980009803F06FFE00B202F07DFA57
:201AE000AC4D87281ED3D9F8000003F065FE00B202F073FA872815D3A7490878A0B9287815
:201B000058280CD9A5480288C2F30E020280A4480288C2F30E0202800120087004E0401C0C
:201B2000287001E085F800A07C48DFF878B29E4D90F80090B9F1000F2FD02868584506DD7F
:201B400003F0D8FC994A9A4B03F0EAFB08E09949884209D303F0CEFC944A954B03F0CAF87E
:201B600003F096F8286002E05046C5F800A00146B0463546306803F0E9FC064628606848DB
:201B80008D4D0778EFB3286858450ADD03F0B2FC864A874B03F0C4FB0CE0306880F000400D
:201BA000E0E78449884209D303F0A4FC7F4A804B03F0A0F803F06CF8286002E05046C5F825
:201BC00000A00146D8F8040003F0C0FC0546C8F804007A487A4902784FF40000002A71D0DF
:201BE000B9F1000F6FD0002F6DD0DFF8D8A147464FF033398E4242D38D4240D3314628464D
:201C000000E018E003F020FE1AD23868834603F071FC05460E465946786803F047FF216846
:201C200003F046FE03F066FC4A46534603F07AFA2A46334641E0D8F8040080F00040BBE758
:201C4000D7E9001003F000FF3DD27868834603F051FC05460E465946386803F027FF21684A
:201C600003F026FE03F046FC4A46534603F05AFA2A46334603F03EF803F00AF8DDE086421C
:201C800028DB854226DB3146284603F0DDFE1BD23868834603F02EFC05460E465946786835
:201CA00003F004FF216803F003FE03F023FC4A46534603F037FA33462A4603F01BF802F071
:201CC000E7FFBCE080E026E0D7E9001003F0BCFD21D2BAE7304603F00DFC06460F46206871
:201CE00003F008FC4A46534603F01CFA8946044632463B4603F016FA02F0CAFFC8F800002B
:201D0000284603F0F7FB22464B4603F00BFA02F0BFFFC8F8040093E0B0010020CE000020D9
:201D2000CF000020640100205D010020540100205C010020600100205E0100200000C842B5
:201D40007402002034020020DA000020CA00002071000020CB0000209A99B9401904560E8A
:201D60002DB29D3F17B7513A3C010020ACC5273752499D3A82A8FB3740010020440100208F
:201D800048010020FC00002000010020F4000020F8000020CC00002079000020442C01403B
:201DA000443401400AD7A33C4C0100207B14AE47E17A943F0AD7A3BC500100207A00002040
:201DC000000080803333E33FB9F1000F38D0AFB347468E4218D38D4216D33146284603F080
:201DE00033FD0BD2396878680D4603F05FFE216803F05EFD294603F0A9FB20E0D7E9001005
:201E000003F022FE1CD20DE0864223DB854221DB3146284603F018FEE4D3D7E9001003F0E3
:201E200013FD0DD2796838680D4603F03FFE216803F03EFD294603F089FB386000E07860C2
:201E40000A4AD8F8001011600949D8F804000860BDE8F88F20683146044603F029FD386029
:201E60002946204603F024FDE9E7000014010020180100202DE9F05F5B480188428811448B
:201E80008288C0881144594A0844C0F38D011088B0F57A7F01D2401C108055480126554D10
:201EA00003784FF49B6C002483B1534BDFF84CA1DFF84C911888DFF84C81534F614517D973
:201EC000B0F5FA7F3DD8401C18803AE04F4A61450AD9108840F2DC51884202D34C480670FF
:201EE00057E0401C108054E0148006704948F6E79B46062823D99AF8000000BB99F800002A
:201F0000E8B910884FF44871884210D388F80060C8203A7812B1401E3C7080B20028F8D175
:201F200088F8004020213C48FFF7D5FA07E03B48037883F001030370394806701180ABF85D
:201F400000403848807D18B33748807D00B3374837490078097808433649097808433649BD
:201F6000097808433549097808433549097808433449097808433449097808433349097872
:201F8000084311D199F800009AF8001008430BD06C61A8692E49401CA861C002B0FBF1F0B3
:201FA0002C490880BDE8F09F2B48017847F2712041436869814213D82848007858B988F8BE
:201FC0000060C8203A7812B1401E3C7080B20028F8D188F8004020210F48FFF77CFAD8E794
:201FE000401C6861D5E700008E000020B4000020AE00002030000020B0000020CE000020A2
:020000040800F2
:20200000CF000020AA00002075000020B20000207300002074000020000801407A00002096
:20202000CD0000207402002034020020A90000206E000020CB000020CA000020AB000020D0
:2020400076000020770000207D0000207E00002040420F005A0100205F010020C3000020A9
:20206000034A516821F44041014351607047000000100240044A0029516901D0014300E0A0
:20208000814351617047000000100240044A0029D16901D0014300E08143D161704700006E
:2020A00000100240044A0029116901D0014300E0814311617047000000100240044A002932
:2020C000916901D0014300E0814391617047000000100240044A0029D16801D0014300E0AD
:2020E0008143D160704700000010024010B500F0FBF801210420FFF7E1FF01210820FFF7DE
:20210000DDFF01211020FFF7D9FF01210846FFF7D5FF0121C802FFF7D1FF01214803FFF774
:20212000CDFF01214802FFF7C9FF01218802FFF7C5FF0121C803FFF7C1FF01210846FFF73A
:2021400099FF01214804FFF7A1FF0121BDE810408804FFF79BBF00000C48016841F0010100
:20216000016041680A4A114041600168094A11400160016821F480210160416821F4FE0164
:2021800041604FF41F01816070470000001002400000FFF8FFFFF6FE30B5204A5168204BF5
:2021A00011F00C0103D0042901D0082901D0036012E05168536801F470114FF0020413F4B3
:2021C000803F04EB914102D053689B0301D5154B00E0134B5943016051680F2303EA1111E9
:2021E000114B5C5C0168E14041605468072505EA14241C5D21FA04F48460546805EAD4247E
:202200001B5DD940C1605268032303EA9232064B1B1F9A5CB1FBF2F1016130BD00100240CA
:2022200000127A0000093D0008000020034600205909094A01290AD002290AD0516A03F0CF
:202240001F02012393400B4200D0012070471168F5E7116AF3E70000001002400248406883
:2022600000F00C007047000000100240034A516821F0F00101435160704700000010024053
:20228000014908607047000000004242034A516821F4E061014351607047000000100240F7
:2022A000034A516821F4605141EAC0005060704700100240014908667047000000004242BB
:2022C000034B5A68084322F47C1210435860704700100240034A516821F0030101435160DB
:2022E000704700000010024010B5FFF735FF0120FFF7C6FF2120FFF799FF0028FAD0102019
:20230000FEF7C0FE0220FEF7F1FE0020FFF7AEFF4FF48060FFF7BAFF0020FFF7C1FF4FF456
:2023200060110020FFF7CCFF0120FFF7C3FF3920FFF77CFF0028FAD00220FFF7CBFFFFF7DE
:202340008DFF0828FBD110BD70B50A4D4FF480612846FFF7B9F80446E9142846FFF7B4F81C
:2023600044EA4004A9142846FFF7AEF844EA800070BD00000010014070B5094D20212846CE
:20238000FFF7A2F8044640212846FFF79DF844EA400480212846FFF797F844EA800070BD28
:2023A000000C0140F0B53B48007808B93A4800783A4C012700213A4A042804D0937A502B9A
:2023C00009D3217009E0937B5D1C9573082B05D92770917202E05B1C93729173314B324C11
:2023E000DFF8D0C01B7824789CF8006023432F4C247823432E4C2478234301D0002E3AD0EB
:20240000274B5D7ADB785C1CE4B202280AD0012813D0082818D0107A502823D311721173EB
:20242000517221E0082B06D9D5B9577286F001008CF8000014E0D47012E0082BFBD97DB90D
:2024400057728CF800100BE0082BF4D9107B38B91948037883F00103037018481773077091
:20246000117203E0401C10721182D170144B1878012801D05173F0BD507B502806D3D07A84
:202480000028F8D00F4819700170F0BD401C5073F0BD0000D5000020D6000020C4000020B3
:2024A00030000020D8000020D7000020CF000020CE000020C30000207A000020CD00002096
:2024C00073000020C200002000687047704700002DE9F04FDFF88CB49DB0584600F098FCD6
:2024E00009A800F0C1FE40200325C700ADF82450ADF82600ADF8287000240126ADF82A40B2
:202500008DF82C6009A9584600F060FE0121584600F04AFC0121584600F0AFFE20215846DA
:2025200000F046FE6020ADF800000420ADF80400ADF808400820ADF80A00ADF80C40ADF81B
:202540000260ADF80640ADF80E706946584600F01FFD6946584600F061FD6946584600F0DA
:20256000A7FD7020ADF80000F81EADF80600ADF80260ADF80840ADF80C406946584600F09F
:20258000DBFD0121584600F02AFC0821584600F03FFD0821584600F081FD0821584600F0AE
:2025A000C5FD0821584600F0F9FD3002ADF818004FF4805AADF814404FF02008ADF81CA0DF
:2025C000ADF81640ADF81A80ADF81E40ADF8204005A9584600F0F2FB01228121584600F03D
:2025E000CFFC8121584600F004FC0021584600F0E7FD0021584600F0E5FD0021584600F00D
:20260000E3FDDFF86493484600F002FC09A800F02BFEADF824504020ADF82600ADF8287045
:20262000ADF82A408DF82C6009A9484600F0CEFD0121484600F0B8FB0121484600F01DFE71
:202640002021484600F0B4FD6020ADF800000420ADF80400ADF808400820ADF80A00ADF8AF
:202660000C40ADF80260ADF80640ADF80E706946484600F08DFC6946484600F0CFFC69469C
:20268000484600F015FD0121484600F0A8FB0821484600F0BDFC0821484600F0FFFC08213C
:2026A000484600F043FD3002ADF81800ADF81440ADF81CA0ADF81640ADF81A80ADF81E40D6
:2026C000ADF8204005A9484600F078FB01228121484600F055FC8121484600F08AFB0021FC
:2026E000484600F06DFD0021484600F06BFD0021484600F069FD0121584600F07DFB01219C
:20270000484600F079FB97482030008840F25551084394492031088093482030008840F252
:2027200055510843904920310880BBF8000040F00101ABF80010B9F8000040F00101A9F8DA
:2027400000104FF4F060ADF81000DFF820B28DF812504FF018098DF8139004A95846FEF7C9
:202760003BFE4EF20300ADF810008DF812508DF8139004A97E48FEF72FFE4FF4E070ADF84C
:2027800010008DF812508DF81390DFF8E89104A94846FEF721FEF003FFF762FCADF810502F
:2027A0008DF8134004A95846FEF716FE3820ADF810008DF8134004A94846FEF70DFE0720A6
:2027C000ADF810008DF8134004A94846FEF704FE4FEA7B3B5D465846FEF736FB66480C909A
:2027E00066480DA94FF00209A1E811028020CDE910400001CDE91270CDF850808000CDE9E5
:2028000015040CA92846FEF7A1FB5B484C38FDF76BFD5B4D2846FDF767FD17A8FDF769FEE0
:20282000300417908DF860608DF861404FF46020CDE9190450488DF86C9017A94C38FDF76B
:202840009DFD17A92846FDF799FD4B4802214C38FDF7DDFD02212846FDF7D9FD4648012311
:202860001A4600214C38FDF7ADFD01231A460D212846FDF7A7FD4048012302220F214C3879
:20288000FDF7A0FD012302220E212846FDF79AFD394801231A460A214C38FDF7C0FD0123AE
:2028A0001A460B212846FDF7BAFD3348012302220C214C38FDF7B3FD012302221946284646
:2028C000FDF7ADFD2C4851464C38FDF743FD51462846FDF73FFD284801214C38FDF730FD2B
:2028E00001212846FDF72CFD01212846FDF71EFD214801214C38FDF7E2FC01212846FDF727
:20290000DEFC0220FEF756FB1B484C38FDF7C1FD194C4C3C2046FDF72AFD0028FAD1204615
:20292000FDF7E2FD2046FDF71BFD0028FAD12846FDF7AFFD2846FDF71AFD0028FAD1284677
:20294000FDF7D2FD2846FDF70BFD0028FAD101212046FDF7BEFC01215846FEF769FA1DB03C
:20296000BDE8F08F002C01400034014000080140000C0140001001404C240140BC010020DC
:20298000002801402DE9F04F8E48DFF83C92DFF83CA200788E4E0024002878D18D48007813
:2029A000002874D08C4800780028F6D18B4800780028F2D18A4800780028F2D089488C4960
:2029C0008C4B0278884809788B4D07788748DFF82CC2DFF82C820078DFF828B208431978E0
:2029E000DFF824E2084329788A4D08439CF80010894B084398F800104FF0010808439BF863
:202A0000001008439EF80010DFF804E240EA010B7E48012A01788148007800D137B1DFF887
:202A200000C2012F9CF800C002D003E07C4F2CE0012A02D0174334D047E0BCF1000F44D171
:202A4000784FBBF1000F3F6828D1F446674501D8AF4204DD674501D8AF421FDDF1B1704FF0
:202A600087F8008037782FB9B9F800C04CF4004CA9F800C029B9BAF800C04CF4004CAAF8E0
:202A800000C086F80080684F1C703C701DE084E0AF421ADBC9B983F8008016E07745F9D248
:202AA000F6E75F4FBCF1000F0FD070B93C70B9F800C0CCF30E0CA9F800C0BAF800C0CCF33F
:202AC0000E0CAAF800C034701C70474F3A70574F97F800C0564F3F7810B11FB9534931E073
:202AE00097B388B3BCF1000F4FD1524FBBF1000F3F6802D077452CD229E0774501D8AF4257
:202B000009DDF3465F4501D8AF421EDD96F800C0BCF1000F19D0454D85F8008035782DB918
:202B2000B9F8006046F40046A9F80060374D29B9BAF8006046F40046AAF8006085F800800C
:202B400039491C700C7020E008E05F4501D2AF421BDB3178C9B983F8008016E0074314D15A
:202B60003249BCF1000F10D07AB90C70B9F80050C5F30E05A9F80050BAF80050C5F30E0505
:202B8000AAF8005021490C701C7050EA020100D11C7027490870BDE8F08F21480470B9F89D
:202BA0000010C1F30E01A9F80010204834700470BAF80010C1F30E01AAF80010134804700B
:202BC000E9E7000078000020442C014044340140CF0000207400002073000020C30000202A
:202BE000A8000020D8000020E4000020CA000020CB0000207D0000207E000020760000206B
:202C000077000020AB0000206E000020CE000020000070C100007041D1000020D70000200C
:202C2000E60000200001002079000020E7000020E5000020FC0000204FF0E02104280869CF
:202C400003D020F004000861704740F00400FAE7704700000D48016841F0010101604168A6
:202C60000B4A1140416001680A4A11400160016821F480210160416821F4FE0141604FF47D
:202C80001F0181600449C00308607047001002400000FFF8FFFFF6FE08ED00E070B52F4C54
:202CA0002088C00758D02E480078FDF7A7FE2D4D002101222878102803D32B48297002700C
:202CC00001E0401C28706878032803D327486970027001E0401C6870254E307868B12548CE
:202CE00001F0C0FC244801F069FA22482349007B087021482249007B087022492248FEF70D
:202D000005FC22492048FEF7EBFB01212048FDF7E1FB307818B100F0BBFA00F03DFB1D4807
:202D2000FDF7BCFB1B491C4B68788A8823F810201A4B4A8823F81020194B0A8823F810201D
:202D4000184AC98822F8101000F0DCFB00F092FC4FF6FE702080208070BD0000102C0140A4
:202D6000AA0000204C00002075000020B6000020720000203402002074020020CA0000204A
:202D8000CB00002070010020E0020020760100200024014068010020960000209E000020BC
:202DA000BA0000208E0000200029018802D041F0800101E021F080010180704710B50A8853
:202DC0004B88CC881A438B8823431A430B891A434B8989891A430A43A0F8442010BD002926
:202DE000818802D041F0010101E021F0010181807047C94301827047002930F8441F02D04D
:202E000041F4004101E0C1F30E010180704700004B4910B5884202D10121C41486E0B0F169
:202E2000804F09D0474988420DD101210220FFF739F90021022064E001210846FFF732F92E
:202E4000002101205DE04049884206D101210420FFF728F90021042053E03C49884206D1CE
:202E600001210820FFF71EF90021082049E03849884206D101211020FFF714F900211020C1
:202E80003FE03449884206D101212020FFF70AF90021202035E03049884202D10121441494
:202EA00044E02E49884202D10121CC043EE02C49884202D101210C0538E02A49884202D15D
:202EC00001214C0532E02849884206D101214020FFF7E8F80021402013E02449884206D181
:202EE00001218020FFF7DEF80021802009E0204988420AD1841501212046FFF7D3F8002189
:202F00002046BDE81040FFF7CDB81A49884202D101210C040AE01849884202D101214C044F
:202F200004E0164988420AD101218C042046FFF7D1F82046BDE810400021FFF7CBB810BD10
:202F4000002C01400004004000080040000C0040001000400014004000340140004C014086
:202F6000005001400054014000180040001C00400020004000400140004401400048014088
:202F8000002A828901D00A4300E08A438281704730B5028C22F001020284028C8388048B41
:202FA00022F0020224F073050C882C430D8915434A882A43114DA8420BD0114DA84208D0FC
:202FC000104DA84205D0104DA84202D00F4DA8420DD122F008054A8923F440732A4322F05D
:202FE00004058A882A438D891D43CB892B4383800483C9888186028430BD0000002C01404F
:2030000000340140004001400044014000480140028B22F008020A430283704770B5028CC7
:2030200022F010020284028C8388048B0D8824F4E6464FF6FF7404EA052535430E8922F0F4
:20304000200204EA061616434A8804EA02123243104EB04202D0104EB04215D122F08006B2
:203060004A8923F4406304EA0212324322F040068A8804EA021232438E8904EA86061E4379
:20308000CB8904EA8303334383800583C9880187028470BD002C014000340140028B4FF627
:2030A000FF7322F4006203EA012111430183704770B5028C22F480720284028C8388848B9F
:2030C0000D8824F0730425430E894FF6FF7422F4007204EA062616434A8804EA02223243C5
:2030E000104EB04202D0104EB04215D122F400664A8923F4405304EA0222324322F48066FC
:203100008A8804EA022232438E8904EA06161E43CB8904EA0313334383808583C988818762
:20312000028470BD002C014000340140828B22F008020A438283704770B5028C22F480522D
:203140000284058C8288838B0C8823F4E6464FF6FF7303EA0424344325F400560D8903EA34
:20316000053535434E8803EA06362E43094DA84202D0094DA84205D122F480458A8903EA2A
:2031800082122A4382808483C988A0F84010068470BD0000002C014000340140828B4FF601
:2031A000FF7322F4006203EA0121114381837047828822F07002828082880A438280704767
:2031C00081867047018770478187704730B502881B4C1C4DA0420DD0A8420BD0B0F1804F00
:2031E00008D0194B984205D0184B984202D0184B984203D122F070034A881A43154B9842D6
:2032000006D0154B984203D022F44073CA881A4302808A8882850A880285A0420AD0A842F9
:2032200008D00E4A904205D00D4A904202D00D4A904201D1097A01860121818230BD0000A5
:20324000002C0140003401400004004000080040000C00400010004000140040004001408F
:2032600000440140004801404FF6FF71818000210180C1804180017270470029018802D038
:2032800041F0040101E021F004010180704700002DE9F041324DB5F9000000F09EFE314C4C
:2032A0000646B4F9020000F098FE864238D92E48007898B9B4F90210B5F900002B4A8142D0
:2032C00004DA12781144814205DB06E006DD1278891A814201DD618000E06080244D254E72
:2032E000254FA87DF0B1002020803080F880288B224900F0D5F8214A21491A4801F006FCA7
:2033000020491F4801F047FC1E481F4A01881180121D41881180111D80880880BDE8F08163
:203320002888DAE7194940F60870B1F910208242DDDAB1F912108142D9DA1549154800F0CA
:203340002FFF0E4A0B49124801F0FEFB30880A49404200B200F0FEFEB8892080C7E7000095
:203360005200002098010020B80000207F000020740200209001002026020020A00100205B
:2033800088010020AA010020342C0140E002002080010020760100202DE9F041324DB5F96A
:2033A000000000F01AFE314C0646B4F9020000F014FE864238D92E48007898B9B4F90210B4
:2033C000B5F900002B4A814204DA12781144814205DB06E006DD1278891A814201DD61802F
:2033E00000E06080244D254E254FA87DF0B1002020803080F880288B224900F051F8214A45
:2034000021491A4801F082FB20491F4801F0C3FB1E481F4A01881180121D41881180111D53
:2034200080880880BDE8F0812888DAE7194940F60870B1F90C208242DDDAB1F90E10814289
:20344000D9DA1549154800F0ABFE0E4A0B49124801F07AFB30880A49404200B200F07AFE52
:20346000B8892080C7E700005400002094010020B70000207F000020340200208C0100201B
:20348000180200209C01002084010020A401002034340140E00200207C01002070010020F2
:2034A00010B5820912F44073C0F38710144CC0F1FF0210D0B3F5807F13D0B3F5007F16D030
:2034C000B3F5407F06D134F8122052420A8034F81000488010BD34F81000088034F812005F
:2034E000F7E734F812200A8034F8100005E034F810004042088034F812004042E9E700000F
:20350000765C00082DE9F84F4A4801884A4D4B4E89064FF001074FF0000472D500F050FD8C
:20352000B0803189804601F1010189B2DFF810B13181C0055CD50E2922D19BF80000287017
:203540009BF801009BF802209BF8043000EB02209BF803209BF8095002EB03229BF80830CF
:2035600000B212B203EB05230FFA83FA904205D19BF80550552D05D0AA2D03D031480770B8
:20358000348137E002F034F92F4902F053F800902E484FF040490168009801F0D7FF494666
:2035A00002F048F82A490860284900980860504601F0A0FD0022274B01F044FC01F068FB50
:2035C0002549264A552D086059460ED03078431C3370032800D3147088799BF80710884205
:2035E000CED11F4958380880CAE717703470F3E70D2902D832890BF80280B481BDE8F88F45
:20360000FFE7184800780028F8D0B089411CB18144F6C8118842F1D313482C7007701348CA
:203620000188C1F30E01018011480188C1F30E010180E3E700440040D5000020180000201C
:20364000FC0100207B0000200000C8420C010020FC0000200000594004010020D7000020AA
:20366000F6000020720000207D000020442C0140443401402DE9F84F58480188584D594EC9
:2036800089064FF001074FF000047DD500F098FCF0807189804601F1010189B2DFF848A11C
:2036A0007181C00578D50E2921D19AF80000F2785146904200D12870287048788A780B7931
:2036C00000EB0220CA784D7A02EB03220B7A00B212B203EB05230FFA83F9904205D19AF8F2
:2036E0000550552D05D0AA2D03D040480770748154E002F07DF83E4901F09CFFDFF8F4B057
:203700000090DBF8001001F021FF4FF0FF3102F074FA394908600098CBF80000484601F092
:20372000E9FC0022354B01F08DFB01F0B1FA3449344B52460860552D07D07178481CC0B2D9
:203740007070032904D31C7004E01F70747001E0401C70709079D179884202D12A49583893
:2037600008802A482A49007809780843BFD12949907A08702849D07A08702849107B08706D
:203780009AF80D00264901E00EE005E008700028ADD10A200870AAE70D2902D872890AF809
:2037A0000280F481BDE8F88F1E4800780028F9D0F089411CF18144F6C8118842F2D31A48CB
:2037C0002C70077019480188C1F30E01018018480188C1F30E010180E4E700000048004028
:2037E000D6000020180000200A0200207C0000200000C842100100200001002000005940DE
:2038000008010020D8000020F8000020CE000020CF0000205C0100205D0100205E01002018
:203820005F010020720000207E000020442C014044340140F0B5DFF808E1DFF814C140F22B
:203840004656DEF808103F4C3F4D404F00220123DCF80800B14203D9B04201D922700CE0FD
:203860009CF83BC09EF83BE0F4450BD1B14201D3227000E02370B04201D32A7000E02B704C
:203880003A7019E04FF4AF76B14209D2B04207D200F13706B14201D8373106E0237007E0C2
:2038A00000F15806B142F9D858318842227001D82A7000E02B703B702648274C28490578A8
:2038C0002648ADB1274D0A702D7815B1237002701FE02270244C40F26265B4F90040AC42E9
:2038E00001DB037015E0047884F00104047010E01E4D02702D7815B123700A7009E022705B
:203900001B4C247824B10C7884F001040C7000E00B70184C097821700178174801701748DD
:20392000174902700A70174A12780AB10370F0BD1548164A007812781043F8D00B70F0BD73
:2039400034020020E8000020E9000020F20000207402002078000020EC000020EF000020A5
:20396000F0000020D000002066000020700000206F000020EB000020EA000020EE0000207F
:20398000ED000020D1000020CF000020CE0000202DE9F04FDA48DB496422B0F90000B1F9D8
:2039A0000010D94D0844D121484390FBF2F001B288B000206982002900DC6882D349FA237D
:2039C000DFF850C3B1F90010594391FBF2F1503109B229820191CE49D04B8A68DCF80810AF
:2039E00011444A08CC496A6108801C78CC4B07941F78CC4B93F800A0CB4B93F800B0CB4B32
:203A00001B780093CA4B93F800E001230CB10B8024E017B14FF480741FE0BAF1000F01D007
:203A200002241AE0BBF1000F02D04FF4007414E0C04C24780CB108240FE0BF4C247814B142
:203A40004FF4006409E0009C14B14FF4004404E0BEF1000F02D04FF480440C80AA4CB74DED
:203A6000A678B74C0F2E7DD3A74EB07028706870A870E870B34E28716871367806B12B7030
:203A8000B14E36781EB12E7846F002062E70AF4E36781EB12E7846F004062E70AC4E367882
:203AA0001EB12E7846F008062E70AA4E367806961EB12E7846F010062E70A74E36780596D0
:203AC0001EB12E7846F020062E70A44E367804960EB12826EE70A24EDFF83882367803960A
:203AE0002E719CF816C0CDF808C098F83B90884EDFF81C82BCF1000FB67D98F83B8011D16E
:203B000086B9C1450ED0B2F5487F01D96B7109E0B2F5CB7F02D34FF0020C01E04FF0030C33
:203B200085F805C020706070A070E070DFF834C2207160719CF800C0BCF1000F00D02370E1
:203B4000DFF824C29CF800C0BCF1000F05D094F800C04CF0020C84F800C0DFF810C29CF8B4
:203B600000C000E06CE0BCF1000F05D094F800C04CF0040C84F800C0DFF8F4C19CF800C014
:203B8000BCF1000F05D094F800C04CF0080C84F800C0DDF818C0BCF1000F05D094F800C032
:203BA0004CF0100C84F800C0DDF814C0BCF1000F05D094F800C04CF0200C84F800C0DDF872
:203BC0001CC0BCF1000F01D004271EE00FB105271BE0BAF1000F01D0A37017E0BBF1000F1C
:203BE00001D0022711E0634F3F780FB103270CE0614F3F780FB1062707E0BEF1000F01D0D1
:203C0000072702E0009F0FB10827A770049F012F01D12827E770039F27716370029F97B9A6
:203C20008EB9C1450FD0B2F5487F01D963710AE0B2F5CB7F01D3022200E00322627102E0AF
:203C4000314A761C9670DFF8C0904E4F4E4B99F80280B7F800C0494A494E1F88B8F1100FD9
:203C60004BD2DFE808F0081014181C2024282C2F32363A3D4044287840F4807010802078F2
:203C800040F4807038E068781080607834E0A8781080A07830E0E8781080E0782CE02879BF
:203CA0001080207928E068791080607924E010800CF0FF0020E010804FEA1C201CE0108069
:203CC000019804E01080019814E010800878C0B212E010800888000A0EE01080F8B20BE099
:203CE0001080380A08E0108099F81200EFE71080B9F81200C0F30720308008B0BDE8F08F48
:203D00006200002064000020180000206C000020340200207402002058010020CB00002089
:203D2000CA00002077000020760000207E0000207D000020AD000020AC0000205600002022
:203D40005C000020E9000020EA000020EB000020EC00002078000020C300002073000020AF
:203D6000F2000020E8000020F1000020ED000020EE000020AB0000206E000020044400401C
:203D800004480040DC0000205A0100202DE9F04186B00425ADF810500324364F8DF81240F2
:203DA00018268DF8136004A93846FDF715FB0820ADF810008DF812408DF8135004A93846D7
:203DC000FDF70AFB2802ADF810008DF812408DF81360294E04A93046FDF7FEFA6802ADF8A7
:203DE00010008DF812408DF8135004A93046FDF7F3FADFF88880404600F04EF8AF02002480
:203E00004CF67336ADF80470ADF808400C250096ADF80640ADF80C40ADF80A5069464046DA
:203E200000F074F80021404600F0CEF80121404600F028F8DFF84880404600F02DF8ADF832
:203E40000470ADF808400096ADF80640ADF80C40ADF80A506946404600F058F80021404674
:203E600000F0B2F80121404600F00CF806B0BDE8F081000000080140000C01400044004026
:203E8000004800400029818902D041F4005101E021F4005181817047174910B588420AD145
:203EA00001218C032046FEF715F92046BDE810400021FEF70FB91149884202D101214C0446
:203EC00010E00F49884202D101218C040AE00D49884202D10121CC0404E00B4988420AD19F
:203EE00001210C052046FEF7DDF82046BDE810400021FEF7D7B810BD003801400044004095
:203F000000480040004C00400050004030B50446008A85B00D464CF6FF710840E98801430D
:203F20002182A0894EF6F3110840A9882A8911436A8902431143A181A08A4FF6FF41084048
:203F4000A9890143A1826846FEF726F91B48844201D1039800E00298A1890904002900EBAB
:203F6000C00101EB0010296802DA4FEA410101E04FEA8101B0FBF1F06422B0FBF2F14FEA27
:203F800001114FEA11136FF018056B4300EB8300A3891D044FF0320306D503EBC000B0FB25
:203FA000F2F000F0070005E003EB0010B0FBF2F000F00F000843208105B030BD00380140B2
:203FC0008088C0F308007047028A22F00F020282028A0A4302827047FEE7002800DC4042B5
:203FE00080B27047514C01E0401E608060880028FAD14020FCF7C8FFFEF778F8FDF712F9C3
:020000040800F2
:20400000FEF766FAFDF73EFCFFF7C0FEFDF790FADFF81C81DFF818B10126DFF818A1DFF849
:204020001891464F08F134080025BBF800105846090610D58AF800600580B8F80010C1F3B8
:204040000E01A8F80010B9F80010C1F30E01A9F800103B4814E0384834380188090610D58C
:204060008AF800600580B8F80010C1F30E01A8F80010B9F80010C1F30E01A9F800103148F8
:204080000670387820B1FCF7EDFCFFF781FC3D702D4801780029C8D005702078401CC0B2A3
:2040A000207002283AD32570FCF768FDFEF77AF926480078012801D1FDF7DCFE2448007851
:2040C000012801D1FCF73AFBFCF712FE6078401CC0B260707D2803D36570FDF76BFBA4E70F
:2040E00001280CD002280DD003280ED004280FD0052810D0062898D1FCF77EFF95E7FFF71A
:2041000099FB92E7FCF718FE8FE7FCF767FF8CE7FCF76AFF89E7FCF769FF86E7FDF704FCBF
:20412000FCF7F0F9FEF72EFC7FE700004E000020102C0140AB00002044340140B6000020D9
:20414000AD000020AC00002075000020A6000020A700002030B5114C4C8163420B818210D2
:204160000880002802DD4FF0010005E002DA4FF0FF3001E04FF00000CD88284400B2024468
:20418000C880944201DD224602E0934201DA1A46CA8042F38F10888130BD000000C0FFFFF7
:2041A00002880A80B0F90020B0F902000244104449F2CE3250430014488070472DE9F84F1F
:2041C0000446408840F6FC21884201D2401C60806088002544F2E818884206D3C4F8088077
:2041E000E574257584F83A5009E0A26840F2F5318A4204D800EB8001B1F57D7F01D9218D3D
:20420000E183A26840F2465101278A4204D800EB4000B1EB400F02D2A775E57503E0E07DF7
:20422000062800D3A57594F83B302088627D618B4FF6FF761BB3062A06D094F83920E2B1F3
:20424000321A8A4216D313E0E28BB24204D194F83930002BF4D102E094F838301BB1131A80
:204260008B4205DC2EE0321A8A4201D284F83870084423E084F83950FAE7E28BEFE7012AD0
:2042800003D094F8392062B91AE0E28B32B194F8383073B113188B420FD313E094F8393027
:2042A00023B1814209D284F8395006E0884204D308E0814201D284F83870081A608302E077
:2042C000E28BE7E76283FEF73FF810F0FF0020741BD0072819D0A574207C617C41F2C1690D
:2042E00088427CD084F83950DC49E774627D31F81000801A00B2E08101280ED0421D0CD01C
:20430000421C0DD005280BD00CE0A07C1E28E3D2401CA074607C2074DEE784F83B7001E0AA
:2043200084F83B5094F83C2094F83B00824205D0C4F80880E574257584F83A5084F83C0039
:20434000E07D062801D2401CE07594F83A20608804EB420290856580207D60B1A08DE28D09
:204360001044228E1044628E1044A28E1044E28E1044A06012E0E07C48B194F83A0004EB5D
:204380004000808D00EB40004000A06002E0C4F80880A77594F83A00052806D094F83A0094
:2043A000052804D384F83A5004E02775FAE7401C84F83A00A0682E2801D22E20A060227C63
:2043C00011F812006075627400287CD094F83B3041F2E93A42F6AA2143F6936E00E027E131
:2043E00045F2555246F63E1B4FF4004C4AF6AA2800939BB3072863D2DFE800F0620416220F
:204400003142530041F25552228465844EF61642A284A4F826A02185A4F82AE094F8381029
:2044200069BB84F839704BE043F6FF7323846184A4F82490A4F826E02285A4F82AB03FE0A3
:2044400046F6AA212184628444F26C11A184A4F826B0A4F828C049F2E9310FE034E049F269
:2044600055512184A4F822C046F61741A18449F2E931E184A4F828804BF6936161851FE0A2
:204480004BF6FF712184A4F8228049F2C161A1844BF69361E1844DF2555121854EF63E114E
:2044A000ECE74EF6AA2121844DF2555161844CF26C11A1844EF63E11E1842685A4F82AA0C2
:2044C000618C628B68E099E0072863D2DFE800F06204101D2D3D4E0041F255522284618476
:2044E000A4F82490A4F826E025854EF616411AE043F6FF732384628444F26C12A284A4F8DD
:2045000026B02185A4F82A9044E046F6AA212184A4F822C046F61741A18449F2E931E18408
:20452000228544F26C11618534E049F255512184A4F8228049F2C161A1844BF69361E18447
:20454000A4F828C046F61741EDE74BF6FF7121844DF2555161844CF26C11A1844EF63E11DC
:20456000E184A4F8288049F2C161DCE74EF6AA21218466844EF61641A184A4F826A04DF273
:20458000555121854CF26C11618594F8381009B984F83970618B628C891AA183A26840F296
:2045A000F5318A4208D8217D31B1618DE1830099C9B1012805D009E0608C6083208DE0837E
:2045C0000DE094F83800A0B9608B03E0608BE18C884202D8A18C884215D2608C6083A58332
:2045E00084F839500FE00628F0D194F838000028EAD1608BE18C8842EFD804E027730021A9
:204600001748FEF7F9FBA06840F2F531884202D86168411A00E00021B4F91C20014406EB0A
:2046200051031A44B2FBF1F1218084F838506060A07D002801D0208C6083608B208309D1C7
:2046400094F83B1009B1484401E000F638602083BDE8F88F41F27C210844F8E7025F00089B
:20466000002C01402DE9F84F0446408840F6FC21884201D2401C60806088002544F2E818EF
:20468000884206D3C4F80880E574257584F83A5009E0A26840F2F5318A4204D800EB8001DB
:2046A000B1F57D7F01D9218DE183A26840F2465101278A4204D800EB4000B1EB400F02D2DF
:2046C000A775E57503E0E07D062800D3A57594F83B302088627D618B4FF6FF761BB3062AE7
:2046E00006D094F83920E2B1321A8A4216D313E0E28BB24204D194F83930002BF4D102E07B
:2047000094F838301BB1131A8B4205DC2EE0321A8A4201D284F83870084423E084F839508D
:20472000FAE7E28BEFE7012A03D094F8392062B91AE0E28B32B194F8383073B113188B42FD
:204740000FD313E094F8393023B1814209D284F8395006E0884204D308E0814201D284F897
:204760003870081A608302E0E28BE7E76283FDF703FE10F0FF0020741BD0072819D0A574E6
:20478000207C617C41F2C16988427CD084F83950DC49E774627D31F81000801A00B2E081E3
:2047A00001280ED0421D0CD0421C0DD005280BD00CE0A07C1E28E3D2401CA074607C207491
:2047C000DEE784F83B7001E084F83B5094F83C2094F83B00824205D0C4F80880E574257586
:2047E00084F83A5084F83C00E07D062801D2401CE07594F83A20608804EB420290856580F1
:20480000207D60B1A08DE28D1044228E1044628E1044A28E1044E28E1044A06012E0E07C1C
:2048200048B194F83A0004EB4000808D00EB40004000A06002E0C4F80880A77594F83A000A
:20484000052806D094F83A00052804D384F83A5004E02775FAE7401C84F83A00A0682E28B4
:2048600001D22E20A060227C11F812006075627400287CD094F83B3041F2E93A42F6AA21EF
:2048800043F6936E00E027E145F2555246F63E1B4FF4004C4AF6AA2800939BB3072863D29D
:2048A000DFE800F0620416223142530041F25552228465844EF61642A284A4F826A02185AA
:2048C000A4F82AE094F8381069BB84F839704BE043F6FF7323846184A4F82490A4F826E0C1
:2048E0002285A4F82AB03FE046F6AA212184628444F26C11A184A4F826B0A4F828C049F2E1
:20490000E9310FE034E049F255512184A4F822C046F61741A18449F2E931E184A4F82880BF
:204920004BF6936161851FE04BF6FF712184A4F8228049F2C161A1844BF69361E1844DF26E
:20494000555121854EF63E11ECE74EF6AA2121844DF2555161844CF26C11A1844EF63E11B4
:20496000E1842685A4F82AA0618C628B68E099E0072863D2DFE800F06204101D2D3D4E00C0
:2049800041F2555222846184A4F82490A4F826E025854EF616411AE043F6FF732384628449
:2049A00044F26C12A284A4F826B02185A4F82A9044E046F6AA212184A4F822C046F61741CD
:2049C000A18449F2E931E184228544F26C11618534E049F255512184A4F8228049F2C16183
:2049E000A1844BF69361E184A4F828C046F61741EDE74BF6FF7121844DF2555161844CF2AE
:204A00006C11A1844EF63E11E184A4F8288049F2C161DCE74EF6AA21218466844EF616415F
:204A2000A184A4F826A04DF2555121854CF26C11618594F8381009B984F83970618B628C2E
:204A4000891AA183A26840F2F5318A4208D8217D31B1618DE1830099C9B1012805D009E0B5
:204A6000608C6083208DE0830DE094F83800A0B9608B03E0608BE18C884202D8A18C88428C
:204A800015D2608C6083A58384F839500FE00628F0D194F838000028EAD1608BE18C88428C
:204AA000EFD804E0277300211748FEF7A5F9A06840F2F531884202D86168411A00E0002175
:204AC000B4F91C20014406EB51031A44B2FBF1F1218084F838506060A07D002801D0208C4F
:204AE0006083608B208309D194F83B1009B1484401E000F638602083BDE8F88F41F27C2140
:204B00000844F8E7025F00080034014030B5B0F90030B2F90240B2F900506343B0F9024055
:204B200004FB153343F3CF330B80B0F90230B2F90240B0F90000B2F90020634300FB02305C
:204B400040F3CF30488030BD10B5B0F90030B2F90240B0F90200B2F9002063435043DA1743
:204B600003EB5242C317D21300EB534002EBE030B1F9002044F65D735A4343F2A303584392
:204B8000D31702EB5342D213C31700EB534002EBE030088010BDF0B5B0F90230B0F90000F1
:204BA00040F6DB567043C61700EB5656C3EBE62003EBE62676424FF0000C002B01DD4FF06E
:204BC000010C002803DD0CF1020C0FFA8CFC002E03DD0CF1040C0FFA8CFC40104742C3EBF1
:204BE0000320C317761000EB93507642C6EB0623DE1703EB96539E12C7EB0723DF1703EB96
:204C0000975380129F12BCF1070F0AD2DFE80CF00422190F0F192200FF252C462A4633E054
:204C200002B24FF40070002D1DDA00251EE0C7F1FF02024415B23A18FF32381A14B2FF3036
:204C4000EEE7321AFF3215B2C6F1FF0213181CB2101AE5E7C7F1FF00821915B2BA19FF3277
:204C600014B2801BDCE7854200DB0546002C01DA002402E0844200DB0446002A01DA002204
:204C800002E0824200DB02460D804C808A80F0BD21F00042A2F16052B2F5801F01F0004329
:204CA00028BFD2F17F6C0BD95FEA001C43EAC20242EB507018BF704728BF20F001007047FB
:204CC000B2F5801FBCBF184670474FEA410C1CF5001F02D2084600F0B2BE70B500F0CCFAEB
:204CE00000000089FFF7F6BF4FF00040A0F580007047000010B591EA030F48BF83F0004326
:204D000000F11683841A71EB030C05D2121943EB0C03001B61EB0C01DFF824E14FEA1154D3
:204D2000A4EB135C1EEA430F18BF9EEA445F73D023EA0E03DCF1200E21EA045143F4801393
:204D400032D322FA0CFE10EB0E0023FA0CFE41EB0E01CCF1200E03FA0EFE10EB0E0051F17E
:204D60000001B1F5801FCCF1200E32D201EB045112FA0EF2BDE8104058BF7047401C38BF9B
:204D80005FEA420218BF7047002814BF20F0010041F100014FEA410313F5001F38BF704767
:204DA000A1F1C04100F0B6BA012A43EB0302ACF1200CDCF11F0E32BF4FF0000E23FA0CF385
:204DC00010EB030041EB0451B4EB115FD0D0A1EB045101F5801149085FEA300001EB045132
:204DE0000ED350F1000038BF12FA0EFE08D1BDE81040C9E7401C38BF5FEA4202CAD1C3E7DF
:204E0000BDE810404FEA410313F5001F38BF7047A1F1C04100F07EBA9EEA445F08D011EA92
:204E20005E0FBDE8104004BF01F0004100207047BDE8104070B500F01FFA00BF64FBBE3E07
:204E40000000E0FF2DE9C04130B4DFF8A0C23CEA111418BF3CEA131400F0EC8081EA030501
:204E60001CEA111444EAD57418BF1CEA131500F0C780A4EB05044FF0004545EAC12145EAF8
:204E8000C32341EA505143EA525304F17F74994204F500344FEAC0204FEAC22208BF9042CF
:204EA00000F09C804FEA13650FF24016765D4FEA134506FB05F7C7F1807706FB07F74FEA96
:204EC000D737A7FB03687642C8F58038A7FB06CE38BFA8F1010807FB08E64FF0000EA6FB9D
:204EE000028CE6FB03CEDCF1000CCEF1004E38BFAEF1010EA6FB0C584FF000074FF0000558
:204F0000E6FB0E87A1FB08C6A0FB07CE16EB0E0645F10005E1FB076515F1E04E7EBFA4F59F
:204F200080345FEA46066D4116F1800745F100054FEA17274FEA066647EA0567A6F1DE463D
:204F4000B6F1805F4FEA15251FD9384624F0010C05EBC471BCF1FE6F01EB0C1102D8F0BCF3
:204F6000BDE8008124425CBF01F5801E9EEAC47F02D4F0BCBDE80081244238D4F0BCA1F1D3
:204F8000C041BDE8004100F0C5B94FEAD22242EA43524FEAD323A7FB02864FEAD02040EA22
:204FA000415007FB03661EEA0E0F4FEAD12105FB026658BFA6EB0056B6EB00564FEA520EAF
:204FC0004EEAC37E18EB0E0E56EB530EBDD518EB02085E417F1C55F10005B6E74FF48015FE
:204FE0004FF000074FF000064FF00008ADE7F0BC4FF0000001F1C04101F00041BDE8008115
:2050000011EA0C1F0CEA131500D00CE013EA0C1F00F025804FF00000F0BC81EA030101F088
:205020000041BDE80081F0BCBDE8004181EA030100F070B9F0BCBDE8004170B500F01CF933
:20504000097EFC3E00F007B881EA03014FF0000001F00041704781EA030100F05BB9F0BC2A
:20506000BDE800414FF0000021497047FFFDFBF9F7F5F4F2F0EEEDEBE9E8E6E4E3E1E0DE55
:20508000DDDBDAD8D7D5D4D3D1D0CFCDCCCBCAC8C7C6C5C4C2C1C0BFBEBDBCBBBAB9B8B701
:2050A000B6B5B4B3B2B1B0AFAEADACABAAA9A8A8A7A6A5A4A3A3A2A1A09F9F9E9D9C9C9BFC
:2050C0009A9999989797969595949393929191908F8F8E8E8D8C8C8B8B8A898988888787D1
:2050E0008685858484838382828181800000FF070000F87F10F0004248BF4042B0FA80F327
:2051000010FA03F10AD0C3F11D0303F580634FEA415002EB035202EBD12170474FF0000027
:2051200070470000DFF848C170B51CEA111E1EBF1CEA13159EEA0C0F95EA0C0F00F06F8057
:2051400081EA030423EA4C134EEAD47E21EA4C1141F4801143F48013AE44A1FB024CA0FB78
:205160000365AEF17F7E361955EB0C05A1FB034C4CF10003A0FB021C16EB0C06654153F1AA
:205180000003094218BF46F0010613F4007F0BD14FEA03314FEA0530340341EA155140EA7E
:2051A00016506FF003020AE04FEAC3214FEAC520F40241EA555140EA56506FF0020202EB19
:2051C0002E4201EB025585EACE710AD05FEA440C18BF24F0004450F1000041F1000120EA4E
:2051E000D47040F2FE7C624500D270BDA84214BF4FF080444FF04044002E08BF0024BEF1CE
:20520000806FA8BFA1F1C041BDE8704080F282804FF0000001F1C04101F0004170479EEA39
:205220000C0F0CEA131518BF95EA0C0F06D04FF0000081EA030E0EF0004170BD00F01CF8C3
:205240008900013E00F007B800F009B84FEA430C5FEA5C5C08D081EA030100F05BB84FEA1A
:20526000410C5FEA5C5CF6D14FF00000014970470000FF070000F87F0EF1020E2EF0030E1E
:205280005EF8046B364205D4012A43EB030515F5001F12D8012841EB010C1CF5001F0CD80E
:2052A0000ED14FEAD17C15F5001F0CEB4C0C0CF1020C08BF4CEBD37C04E04FF0080C01E0A1
:2052C0004FEAD37C0CEB4C0526FA05F606F00706B6F1040C06D20EEB860CBDE870404CF035
:2052E000010C6047DFE80CF0090B02024FF000414FF00000A1F5002170BD1946104601289E
:2053000051EB010418BFD4F5001484BF002001F0004170BD0808A0F500114FEA31017047FE
:2053200010B591EA030F48BF83F000433FF5EAAC841A71EB030C07D212198CF0004C43EB91
:205340000C03001B61EB0C01DFF8A4E14FEA1154A4EB135C1EEA430F18BF9EEA445F00F086
:20536000B08023EA6E03524221EA0451C3EB6E0338BF5B1EDCF1200E25D322FA0CFE10EBE8
:205380000E0043FA0CFE41EB0E01CCF1200E03FA0EFE10EB0E0051F10001CCF1200E29D455
:2053A00012FA0EF201EB0451BDE8104058BF7047401C1CBFB2F1004F704700280CBF491CA5
:2053C00020F00100704712EB020E43EB030218BF4FF0010E4EEA4202ACF1200CDCF11E0E62
:2053E00054D943FA0CFE10EB0E0051F1FF31CCF11E0ED5D50EF1010E12FA0EFE404141EB58
:20540000010101EB445C5FEA5C5C10D910EBDE7001EB045138BFBEF1004FBDE8104018BFC9
:20542000704700280CBF491C20F00100704730D24FEAD42C11F5001124F400641BD0B1FA31
:2054400081F20B3AA41AA41ED2F12003914030FA03F31943904001EBCC71002C01EB04517B
:20546000BDE81040A8BF704701F1C0414FF0000001F000417047B0FA80F310FA03F100D112
:2054800010BDE41A173C4805C90AE4E701EB045110BD491001EB0451BDE810404FEA3000FD
:2054A00002E04FF0000170474A0008BF0042F8D0B2F5001F28BF704701F000414FF0000023
:2054C00070479EEA445F07D011EA5E0FBDE8104004BF002100207047BDE8104070B5FFF7EB
:2054E000CBFE00BF40DFF63E83F00041104670470000E0FF43004FEAD30C4FEA3C0C4340D2
:205500001FBF40070CF1605113F0FE4F70471CF0006F03D100200CF0004170470CF000430F
:2055200043EA507010B540EACC0000F042FA00BF000000924FEA0001FFF7ECBE4FF00041EC
:205540004FF00000A1F500217047000090EA010F48BF81F0004100F1B082421A3CBF801A47
:2055600089184FEAD0524FF07F4C1CEA410FA2EBD15318BF9CEA026F00F03B804FF0004C1A
:205580004CEA00204CEA012121FA03FC10EB0C0C1ED202F1FF325FEA1C2040EBC25038BF63
:2055A00070471CF07F0F4FEA400C18BFBCF17F4F38BF7047C3F12003994008BF20F001008D
:2055C000BCF17F4F38BF7047A0F1C04000F037BA4FEA3C00000A40EBC25028BF1CF0FF0F73
:2055E0004FEA400CE6D018BFBCF17F4F38BF7047EAE79CEA026F05D010EA5C0F08BF00F0B7
:205600000040704710B500F0D4F900BF64FBBE3E014800F0C0BA00BF0000C07F401058BFDF
:20562000C0F14040491058BFC1F140418142EFF3008070474FF47F0C1CEAD0121EBF1CEA21
:20564000D11392EA0C0F93EA0C0F00F0858090EA010F48BF42F4807240F4000C41F4000014
:205660002CF07F4120F07F4000B58142A2EB03020FF2081CACEB504EC0F100009EF800E0F4
:205680004FEA4E0E00FB0EFC38BF49004FEA2C1C02F5FA020CFB0EF34FEACE1E4FEA112C19
:2056A0004FEAC1210EEB635E42EB22420EFB0CFC4FEA1C5300FB03114FEA112C4FEA0131DB
:2056C0000EFB0CFC4FEADC4C00FB0C11C14228BF09184CEB03335DF804EB10EB410143EB19
:2056E000C250B2F57C0F38BF704729D512F0F00F1CBF00F1C04000F0004070470081828380
:205700008485868788898B8C8D8E8F919293959697999A9C9D9FA0A2A3A5A7A8AAACAEB091
:20572000B2B3B5B7B9BCBEC0C2C5C7C9CCCED1D4D7D9DCDFE2E6E9ECF0F3F7FAFE00000075
:205740004FEA400C0CF1807CBCF17E4F28BF7047B0F1C04000F073B990EA010F0CEAD11392
:2057600048BF42F48072624538BF634507D213F47F0F16D080EA010000F00040704710B549
:2057800000F017F9097EFC3E00F005B880EA010000F00040704780EA010000F0004000F0BE
:2057A0004EB912F47F0F04BF0248704780EA010000F045B90000C07F41000B0ED3F19E0234
:2057C00008D950F400034FEA032323FA02F048BF4042704710B500F0ECF800BF499224801C
:2057E000002070476FF0004282EA20007047000010F0004148BF4042B0FA80F310FA03F208
:20580000C3F19D030BD051EAC35101EB1220530638BF704700F1010008BF20F00100704764
:20582000B0FA80F310FA03F2C3F19D030AD0D90501EB1220530638BF704700F1010008BF62
:2058400020F001007047000050EA010C00F113801CF5000F58BFBCF5000F01D48842704768
:2058600007D710F5000F58BF11F5000F15D488427047894270471CF5000F04D5BCF5000F65
:20588000F7D5814270474FF0807C1CEB400F38BF1CEB410F01D28142704710B500F089F860
:2058A000922449004FF000504FF08051FFF7B6BE4FF47F0C1CEAD0121EBF1CEAD11392EAE7
:2058C0000C0F93EA0C0F00F0478090EA010F48BF42F480724FF0004C4CEA00204CEA01216C
:2058E00002EB0302A0FB0113A2F50002002918BF43F001035B0028BF4FEA330342EB2242F5
:205900005FEA132C4CEBC2502EBFBCEB436FB2F57C0F70474FEA036CBCF1004F08BF20F00C
:205920000100B2F57C0F38BF70470BD582F0FF0212F5803FC8BF704700F1C040D8BF00F0B7
:205940000040704700F5000C5FEA4C0C48BF7047B0F1C04000F073B890EA010F0CEAD113D0
:2059600048BF42F48072624538BF634504D280EA010000F00040704710B500F01AF800BF04
:205980008900013E00F007B800F009B85FEA410C5FEA1C6C08D080EA010000F050B85FEAF4
:2059A000400C5FEA1C6CF6D14FF00040A0F5800070470EF1020E2EF0030E5EF8044B24426F
:2059C00004D44FEA4102B2F17F4F11D84FEA4003B3F17F4F0CD80ED14FEAD07CB2F17F4F72
:2059E0000CEB4C0C0CF1020C08BF4CEBD17C04E04FF0080C01E04FEAD17C0CEB4C0324FA00
:205A000003F404F00704B4F1040C06D20EEB840CBDE810404CF0010C6047DFE80CF00708C3
:205A200002024FF00040A0F5800010BD0846420018BFD2F1807288BF00F0004010BDFF2181
:205A400041EAD050C005704751EA000C00F113801CF5000F58BFBCF5000F01D4814270476E
:205A600007D711F5000F58BF10F5000F15D481427047894270471CF5000F04D5BCF5000F6A
:205A8000F7D5884270474FF0807C1CEB410F38BF1CEB400F01D28842704780EA010081EAB0
:205AA000000180EA0100FFF7F8BE000090EA010F48BF81F000413FF550AD421A04D882F0B0
:205AC0000042A0EB020011444FEAD0524FF07F4C1CEA410FA2EBD15318BF9CEA026F4AD04E
:205AE0004FF0004C4CEA00204CEA012121FA03FCB0EB0C0C0FD412F0FE0F36D05FEA4C0013
:205B00001DD5001240EBC25038BF70471CF03F0F18BF70470BE0A2F101025FEA1C2040EB7D
:205B2000C25038BF70471CF07F0F18BF7047C3F12003994014BF401E20F00100704780084C
:205B40004FEA122308BF7047B0FA80FCA2EB0C02CCF1280C60FA0CF093EA122F04BF00EBE5
:205B6000C25070474FEAC3707047130A5FEADC1008BF7047F6E79CEA026F04D010EA5C0F5C
:205B800008BF0020704710B5FFF713FF40DFF63E81F0004070470CF00F03092B08BF0820AE
:205BA00000F051800A2B0BD0082B18BF704708BF1CF0400F0AD04FF000004FF00001704721
:205BC0001CF0400F18BF4FF0004070471CF0100F08D020F0704300F07F4242EAD3014FEAAD
:205BE0004370704700F0604021F07F4242EA000201F07F4040EA727070474FF0FF0212EAFC
:205C0000D0521CBF92F0FF038B42C2BFD14200EBC1507047002A0AD0002B0BD0002900F0CC
:205C20000040A4BF40F0FE4040F40000704700F00040704743024FF00B0C18BF4CF0806CE7
:205C40007FF4E6AC70471CF4801F11D01CF4E02F03D06FEACC31490070474FF04050EFF3FF
:205C6000008222F0704242EA000282F3008870474FF0000070470000C90092015B02240326
:205C8000ED03B6047F0548061107D907A2086A09330AFB0AC40B8C0C540D1C0EE30EAB0F94
:205CA00072103A110112C8128F1355141C15E215A8166E173318F918BE19821A471B0B1C5C
:205CC000CF1C931D571E1A1FDD1F9F2061212322E522A62367242825E825A826672726289A
:205CE000E528A329612A1F2BDC2B992C552D112ECC2E872F4130FB30B5316E322633DF332C
:205D000096344D350436BA366F372438D9388C39403AF23AA53B563C073DB83D683E173FE8
:205D2000C53F73402141CE417A422543D0437A442445CD4575461C47C34769480F49B4499D
:205D4000584AFB4A9D4B3F4CE04C814D204EBF4E5D4FFB4F97503351CE51685202539B53F7
:205D60003254C9546055F5558A561D57B0574258D3586459F359825A0F5B9C5B285CB35C88
:205D80003E5DC75D4F5ED75E5D5FE35F6860EB606E61F0617162F1627063EE636C64E864CB
:205DA0006365DD655666CF664667BC673268A66819698B69FD696D6ADC6A4A6BB76B236C11
:205DC0008E6CF86C616DC96D306E966EFB6E5E6FC16F22708370E27040719D71F971547293
:205DE000AE7207735E73B5730A745F74B27404755575A575F37541768D76D87622776B7751
:205E0000B377FA773F788478C77809794A798979C879057A417A7C7AB67AEE7A267B5C7B2D
:205E2000917BC57BF87B297C597C887CB67CE37C0E7D397D627D897DB07DD57DFA7D1D7EDD
:205E40003E7E5F7E7E7E9C7EB97ED57EEF7E097F217F377F4D7F617F747F867F977FA67FDF
:205E6000B47FC17FCD7FD87FE17FE97FF07FF57FF97FFD7FFE7F6B7FD87EB87DA07C8F7B55
:205E8000857A827985780878147726763D7559747B73A172367264719670CC6F076F456EFD
:205EA000E66D2A6D726CBE6B0D6B5F6AB5696169BB6819687967DC664266AB656065CC6455
:205EC0003B64AD63206396620F62CB614761C4604460C65F495FCE5E925E1A5EA45D2F5D9D
:205EE000BD5C4B5CDC5BA55B385BCC5A625AF95992592C59F95895583358D1577157125752
:205F0000B456000002000400030006000100050000000000345F000800000020BC010000EA
:205F20006C0100086C5F0008BC0100209C070000C80100084145020406082D0102030404F3
:205F4000053806070809031488132B900602011302BC0A0009126F12033B82A8FB37438C90
:205F600042560B64640AB00354803F00FFFFFFFFFFFFFFFFFFFFFFFFFFFFFFFFFFFFFFFFFA
:205F8000FFFFFFFFFFFFFFFFFFFFFFFFFFFFFFFFFFFFFFFFFFFFFFFFFFFFFFFFFFFFFFFF21
:205FA000FFFFFFFFFFFFFFFFFFFFFFFFFFFFFFFFFFFFFFFFFFFFFFFFFFFFFFFFFFFFFFFF01
:205FC000FFFFFFFFFFFFFFFFFFFFFFFFFFFFFFFFFFFFFFFFFFFFFFFFFFFFFFFFFFFFFFFFE1
:205FE000FFFFFFFFFFFFFFFFFFFFFFFFFFFFFFFFFFFFFFFFFFFFFFFFFFFFFFFFFFFFFFFFC1
:020000040800F2
:00000001FF